{
  "_format": "hh-sol-artifact-1",
  "contractName": "Transfer",
  "sourceName": "contracts/Transfer.sol",
  "abi": [
    {
      "inputs": [],
      "stateMutability": "nonpayable",
      "type": "constructor"
    },
    {
      "inputs": [
        {
          "internalType": "uint256",
          "name": "_id",
          "type": "uint256"
        },
        {
          "internalType": "string",
          "name": "_option1",
          "type": "string"
        },
        {
          "internalType": "string",
          "name": "_option2",
          "type": "string"
        },
        {
          "internalType": "string",
          "name": "_option3",
          "type": "string"
        },
        {
          "internalType": "string",
          "name": "_source",
          "type": "string"
        }
      ],
      "name": "Check",
      "outputs": [
        {
          "internalType": "bool",
          "name": "",
          "type": "bool"
        }
      ],
      "stateMutability": "view",
      "type": "function"
    },
    {
      "inputs": [
        {
          "internalType": "uint256",
          "name": "_id",
          "type": "uint256"
        },
        {
          "internalType": "string",
          "name": "_source",
          "type": "string"
        },
        {
          "internalType": "string",
          "name": "_destination",
          "type": "string"
        },
        {
          "internalType": "string",
          "name": "_reason",
          "type": "string"
        },
        {
          "internalType": "uint256",
          "name": "_post",
          "type": "uint256"
        }
      ],
      "name": "UrgentTransfer",
      "outputs": [],
      "stateMutability": "nonpayable",
      "type": "function"
    },
    {
      "inputs": [
        {
          "internalType": "uint256",
          "name": "a",
          "type": "uint256"
        },
        {
          "internalType": "uint256",
          "name": "b",
          "type": "uint256"
        },
        {
          "internalType": "uint256",
          "name": "c",
          "type": "uint256"
        },
        {
          "internalType": "string",
          "name": "_name",
          "type": "string"
        }
      ],
      "name": "addOffice",
      "outputs": [],
      "stateMutability": "nonpayable",
      "type": "function"
    },
    {
      "inputs": [],
      "name": "admin",
      "outputs": [
        {
          "internalType": "address",
          "name": "",
          "type": "address"
        }
      ],
      "stateMutability": "view",
      "type": "function"
    },
    {
      "inputs": [
        {
          "internalType": "uint256",
          "name": "_id",
          "type": "uint256"
        },
        {
          "internalType": "string",
          "name": "_source",
          "type": "string"
        },
        {
          "internalType": "string",
          "name": "_option1",
          "type": "string"
        },
        {
          "internalType": "string",
          "name": "_option2",
          "type": "string"
        },
        {
          "internalType": "string",
          "name": "_option3",
          "type": "string"
        },
        {
          "internalType": "string",
          "name": "_reason",
          "type": "string"
        },
        {
          "internalType": "uint256",
          "name": "_post",
          "type": "uint256"
        }
      ],
      "name": "annualTransfer",
      "outputs": [],
      "stateMutability": "nonpayable",
      "type": "function"
    },
    {
      "inputs": [
        {
          "internalType": "uint256",
          "name": "",
          "type": "uint256"
        }
      ],
      "name": "arr",
      "outputs": [
        {
          "internalType": "uint256",
          "name": "id",
          "type": "uint256"
        },
        {
          "internalType": "string",
          "name": "source",
          "type": "string"
        },
        {
          "internalType": "string",
          "name": "destination",
          "type": "string"
        },
        {
          "internalType": "uint256",
          "name": "timestamp",
          "type": "uint256"
        },
        {
          "internalType": "uint256",
          "name": "post",
          "type": "uint256"
        },
        {
          "internalType": "string",
          "name": "reason",
          "type": "string"
        }
      ],
      "stateMutability": "view",
      "type": "function"
    },
    {
      "inputs": [],
      "name": "createAdmin",
      "outputs": [],
      "stateMutability": "nonpayable",
      "type": "function"
    },
    {
      "inputs": [
        {
          "internalType": "uint256",
          "name": "_id",
          "type": "uint256"
        },
        {
          "internalType": "string",
          "name": "_source",
          "type": "string"
        },
        {
          "internalType": "string",
          "name": "_option",
          "type": "string"
        },
        {
          "internalType": "uint256",
          "name": "_post",
          "type": "uint256"
        }
      ],
      "name": "doRandom",
      "outputs": [],
      "stateMutability": "nonpayable",
      "type": "function"
    },
    {
      "inputs": [
        {
          "internalType": "uint256",
          "name": "",
          "type": "uint256"
        }
      ],
      "name": "offices",
      "outputs": [
        {
          "internalType": "uint256",
          "name": "p1",
          "type": "uint256"
        },
        {
          "internalType": "uint256",
          "name": "p2",
          "type": "uint256"
        },
        {
          "internalType": "uint256",
          "name": "p3",
          "type": "uint256"
        },
        {
          "internalType": "string",
          "name": "name",
          "type": "string"
        }
      ],
      "stateMutability": "view",
      "type": "function"
    },
    {
      "inputs": [],
      "name": "random",
      "outputs": [
        {
          "internalType": "uint256",
          "name": "",
          "type": "uint256"
        }
      ],
      "stateMutability": "view",
      "type": "function"
    },
    {
      "inputs": [
        {
          "internalType": "string",
          "name": "_source",
          "type": "string"
        },
        {
          "internalType": "string",
          "name": "_option",
          "type": "string"
        },
        {
          "internalType": "uint256",
          "name": "_post",
          "type": "uint256"
        }
      ],
      "name": "updateInfo",
      "outputs": [],
      "stateMutability": "nonpayable",
      "type": "function"
    },
    {
      "inputs": [
        {
          "internalType": "string",
          "name": "_name",
          "type": "string"
        },
        {
          "internalType": "uint256",
          "name": "_post",
          "type": "uint256"
        },
        {
          "internalType": "uint256",
          "name": "number",
          "type": "uint256"
        }
      ],
      "name": "updateVacancies",
      "outputs": [],
      "stateMutability": "nonpayable",
      "type": "function"
    },
    {
      "inputs": [],
      "name": "urgentRequired",
      "outputs": [
        {
          "internalType": "uint256",
          "name": "",
          "type": "uint256"
        }
      ],
      "stateMutability": "view",
      "type": "function"
    }
  ],
  "bytecode": "0x6080604052600060015560405180608001604052806001815260200160008152602001600481526020016040518060400160405280600681526020017f4d756c756e6400000000000000000000000000000000000000000000000000008152508152506004600082015181600001556020820151816001015560408201518160020155606082015181600301908162000099919062001150565b50505060405180608001604052806000815260200160008152602001600281526020016040518060400160405280600881526020017f4368656d62657572000000000000000000000000000000000000000000000000815250815250600860008201518160000155602082015181600101556040820151816002015560608201518160030190816200012c919062001150565b50505060405180608001604052806000815260200160018152602001600481526020016040518060400160405280600981526020017f476861746b6f7061720000000000000000000000000000000000000000000000815250815250600c6000820151816000015560208201518160010155604082015181600201556060820151816003019081620001bf919062001150565b50505060405180608001604052806001815260200160038152602001600181526020016040518060400160405280600581526020017f4b75726c610000000000000000000000000000000000000000000000000000008152508152506010600082015181600001556020820151816001015560408201518160020155606082015181600301908162000252919062001150565b50505060405180608001604052806000815260200160048152602001600081526020016040518060400160405280600581526020017f506172656c00000000000000000000000000000000000000000000000000000081525081525060146000820151816000015560208201518160010155604082015181600201556060820151816003019081620002e5919062001150565b50505060405180608001604052806000815260200160048152602001600081526020016040518060400160405280600581526020017f44616461720000000000000000000000000000000000000000000000000000008152508152506018600082015181600001556020820151816001015560408201518160020155606082015181600301908162000378919062001150565b50505060405180608001604052806000815260200160048152602001600081526020016040518060400160405280600781526020017f427963756c6c6100000000000000000000000000000000000000000000000000815250815250601c60008201518160000155602082015181600101556040820151816002015560608201518160030190816200040b919062001150565b50505060405180608001604052806000815260200160048152602001600081526020016040518060400160405280600781526020017f4d616c6162617200000000000000000000000000000000000000000000000000815250815250602060008201518160000155602082015181600101556040820151816002015560608201518160030190816200049e919062001150565b50505060405180608001604052806000815260200160048152602001600081526020016040518060400160405280600681526020017f42616e64726100000000000000000000000000000000000000000000000000008152508152506024600082015181600001556020820151816001015560408201518160020155606082015181600301908162000531919062001150565b50505060405180608001604052806000815260200160048152602001600081526020016040518060400160405280600581526020017f4d6168696d00000000000000000000000000000000000000000000000000000081525081525060286000820151816000015560208201518160010155604082015181600201556060820151816003019081620005c4919062001150565b50505060405180608001604052806000815260200160048152602001600081526020016040518060400160405280600b81526020017f56696c6c65205061726c65000000000000000000000000000000000000000000815250815250602c600082015181600001556020820151816001015560408201518160020155606082015181600301908162000657919062001150565b50505060405180608001604052806000815260200160048152602001600081526020016040518060400160405280600781526020017f416e64686572690000000000000000000000000000000000000000000000000081525081525060306000820151816000015560208201518160010155604082015181600201556060820151816003019081620006ea919062001150565b50505060405180608001604052806000815260200160048152602001600081526020016040518060400160405280600881526020017f476f7265676f616e000000000000000000000000000000000000000000000000815250815250603460008201518160000155602082015181600101556040820151816002015560608201518160030190816200077d919062001150565b50505060405180608001604052806000815260200160048152602001600081526020016040518060400160405280600881526020017f4b616e6469766c690000000000000000000000000000000000000000000000008152508152506038600082015181600001556020820151816001015560408201518160020155606082015181600301908162000810919062001150565b50505060405180608001604052806000815260200160048152602001600081526020016040518060400160405280600881526020017f426f726976616c69000000000000000000000000000000000000000000000000815250815250603c6000820151816000015560208201518160010155604082015181600201556060820151816003019081620008a3919062001150565b505050348015620008b357600080fd5b50336000806101000a81548173ffffffffffffffffffffffffffffffffffffffff021916908373ffffffffffffffffffffffffffffffffffffffff160217905550604060049080600181540180825580915050600190039060005260206000209060040201600090919091909150600082015481600001556001820154816001015560028201548160020155600382018160030190816200095591906200124f565b50505060406008908060018154018082558091505060019003906000526020600020906004020160009091909190915060008201548160000155600182015481600101556002820154816002015560038201816003019081620009b991906200124f565b5050506040600c90806001815401808255809150506001900390600052602060002090600402016000909190919091506000820154816000015560018201548160010155600282015481600201556003820181600301908162000a1d91906200124f565b5050506040601090806001815401808255809150506001900390600052602060002090600402016000909190919091506000820154816000015560018201548160010155600282015481600201556003820181600301908162000a8191906200124f565b5050506040601490806001815401808255809150506001900390600052602060002090600402016000909190919091506000820154816000015560018201548160010155600282015481600201556003820181600301908162000ae591906200124f565b5050506040601890806001815401808255809150506001900390600052602060002090600402016000909190919091506000820154816000015560018201548160010155600282015481600201556003820181600301908162000b4991906200124f565b5050506040601c90806001815401808255809150506001900390600052602060002090600402016000909190919091506000820154816000015560018201548160010155600282015481600201556003820181600301908162000bad91906200124f565b5050506040602090806001815401808255809150506001900390600052602060002090600402016000909190919091506000820154816000015560018201548160010155600282015481600201556003820181600301908162000c1191906200124f565b5050506040602490806001815401808255809150506001900390600052602060002090600402016000909190919091506000820154816000015560018201548160010155600282015481600201556003820181600301908162000c7591906200124f565b5050506040602890806001815401808255809150506001900390600052602060002090600402016000909190919091506000820154816000015560018201548160010155600282015481600201556003820181600301908162000cd991906200124f565b5050506040602c90806001815401808255809150506001900390600052602060002090600402016000909190919091506000820154816000015560018201548160010155600282015481600201556003820181600301908162000d3d91906200124f565b5050506040603090806001815401808255809150506001900390600052602060002090600402016000909190919091506000820154816000015560018201548160010155600282015481600201556003820181600301908162000da191906200124f565b5050506040603490806001815401808255809150506001900390600052602060002090600402016000909190919091506000820154816000015560018201548160010155600282015481600201556003820181600301908162000e0591906200124f565b5050506040603890806001815401808255809150506001900390600052602060002090600402016000909190919091506000820154816000015560018201548160010155600282015481600201556003820181600301908162000e6991906200124f565b5050506040603c90806001815401808255809150506001900390600052602060002090600402016000909190919091506000820154816000015560018201548160010155600282015481600201556003820181600301908162000ecd91906200124f565b50505062001350565b600081519050919050565b7f4e487b7100000000000000000000000000000000000000000000000000000000600052604160045260246000fd5b7f4e487b7100000000000000000000000000000000000000000000000000000000600052602260045260246000fd5b6000600282049050600182168062000f5857607f821691505b60208210810362000f6e5762000f6d62000f10565b5b50919050565b60008190508160005260206000209050919050565b60006020601f8301049050919050565b600082821b905092915050565b60006008830262000fd87fffffffffffffffffffffffffffffffffffffffffffffffffffffffffffffffff8262000f99565b62000fe4868362000f99565b95508019841693508086168417925050509392505050565b6000819050919050565b6000819050919050565b6000620010316200102b620010258462000ffc565b62001006565b62000ffc565b9050919050565b6000819050919050565b6200104d8362001010565b620010656200105c8262001038565b84845462000fa6565b825550505050565b600090565b6200107c6200106d565b6200108981848462001042565b505050565b5b81811015620010b157620010a560008262001072565b6001810190506200108f565b5050565b601f8211156200110057620010ca8162000f74565b620010d58462000f89565b81016020851015620010e5578190505b620010fd620010f48562000f89565b8301826200108e565b50505b505050565b600082821c905092915050565b6000620011256000198460080262001105565b1980831691505092915050565b600062001140838362001112565b9150826002028217905092915050565b6200115b8262000ed6565b67ffffffffffffffff81111562001177576200117662000ee1565b5b62001183825462000f3f565b62001190828285620010b5565b600060209050601f831160018114620011c85760008415620011b3578287015190505b620011bf858262001132565b8655506200122f565b601f198416620011d88662000f74565b60005b828110156200120257848901518255600182019150602085019450602081019050620011db565b868310156200122257848901516200121e601f89168262001112565b8355505b6001600288020188555050505b505050505050565b600081549050620012488162000f3f565b9050919050565b8181036200125f5750506200134e565b6200126a8262001237565b67ffffffffffffffff81111562001286576200128562000ee1565b5b62001292825462000f3f565b6200129f828285620010b5565b6000601f831160018114620012d35760008415620012be578287015490505b620012ca858262001132565b86555062001347565b601f198416620012e38762000f74565b9650620012f08662000f74565b60005b828110156200131a57848901548255600182019150600185019450602081019050620012f3565b868310156200133a578489015462001336601f89168262001112565b8355505b6001600288020188555050505b5050505050505b565b6147f680620013606000396000f3fe608060405234801561001057600080fd5b50600436106100cf5760003560e01c8063a9b74fc11161008c578063e92980c511610066578063e92980c514610218578063ec50d53e14610222578063ee3474e31461023e578063f851a4401461025a576100cf565b8063a9b74fc1146101b0578063beface00146101e0578063c613bf1a146101fc576100cf565b80630843023d146100d45780635ec01e4d146100f057806360f1267c1461010e578063696c998b1461014157806370ad393b1461015f57806371e5ee5f1461017b575b600080fd5b6100ee60048036038101906100e9919061395c565b610278565b005b6100f86102ff565b60405161010591906139ee565b60405180910390f35b61012860048036038101906101239190613a09565b610339565b6040516101389493929190613ab5565b60405180910390f35b610149610401565b60405161015691906139ee565b60405180910390f35b61017960048036038101906101749190613b01565b610407565b005b61019560048036038101906101909190613a09565b61173b565b6040516101a796959493929190613ba0565b60405180910390f35b6101ca60048036038101906101c59190613c16565b61191f565b6040516101d79190613d1c565b60405180910390f35b6101fa60048036038101906101f59190613d37565b611eb9565b005b61021660048036038101906102119190613e65565b612add565b005b61022061305a565b005b61023c60048036038101906102379190613ef0565b6130dd565b005b61025860048036038101906102539190613fbf565b613568565b005b6102626137a8565b60405161026f919061406f565b60405180910390f35b60408051806080016040528086815260200185815260200184815260200183815250908060018154018082558091505060019003906000526020600020906004020160009091909190915060008201518160000155602082015181600101556040820151816002015560608201518160030190816102f69190614296565b50505050505050565b6000444260028054905060405160200161031b93929190614389565b6040516020818303038152906040528051906020012060001c905090565b6040818154811061034957600080fd5b906000526020600020906004020160009150905080600001549080600101549080600201549080600301805461037e906140b9565b80601f01602080910402602001604051908101604052809291908181526020018280546103aa906140b9565b80156103f75780601f106103cc576101008083540402835291602001916103f7565b820191906000526020600020905b8154815290600101906020018083116103da57829003601f168201915b5050505050905084565b60015481565b6000805b60408054905081101561147557836040516020016104299190614402565b604051602081830303815290604052805190602001206040828154811061045357610452614419565b5b906000526020600020906004020160030160405160200161047491906144cb565b604051602081830303815290604052805190602001200361146157846040516020016104a09190614402565b60405160208183030381529060405280519060200120604082815481106104ca576104c9614419565b5b90600052602060002090600402016003016040516020016104eb91906144cb565b604051602081830303815290604052805190602001200315611462576000600160408054905061051b9190614511565b820361052957819050610539565b6001826105369190614545565b90505b600080830361055b5760016040805490506105549190614511565b905061056b565b6001836105689190614511565b90505b6000600190505b838314158061057e5750805b15611459578015610cbd576001861480156105be57506000604084815481106105aa576105a9614419565b5b906000526020600020906004020160000154115b156107f05760006106e98a604086815481106105dd576105dc614419565b5b906000526020600020906004020160030180546105f9906140b9565b80601f0160208091040260200160405190810160405280929190818152602001828054610625906140b9565b80156106725780601f1061064757610100808354040283529160200191610672565b820191906000526020600020905b81548152906001019060200180831161065557829003601f168201915b50505050506040518060400160405280600181526020017f61000000000000000000000000000000000000000000000000000000000000008152506040518060400160405280600181526020017f62000000000000000000000000000000000000000000000000000000000000008152508d61191f565b905080156107ea576107e08a8a6040878154811061070a57610709614419565b5b90600052602060002090600402016003018054610726906140b9565b80601f0160208091040260200160405190810160405280929190818152602001828054610752906140b9565b801561079f5780601f106107745761010080835404028352916020019161079f565b820191906000526020600020905b81548152906001019060200180831161078257829003601f168201915b50505050506040518060400160405280600f81526020017f416e6e75616c205472616e7366657200000000000000000000000000000000008152508b6130dd565b6001955050611459565b50610cbc565b600286148015610825575060006040848154811061081157610810614419565b5b906000526020600020906004020160010154115b15610a575760006109508a6040868154811061084457610843614419565b5b90600052602060002090600402016003018054610860906140b9565b80601f016020809104026020016040519081016040528092919081815260200182805461088c906140b9565b80156108d95780601f106108ae576101008083540402835291602001916108d9565b820191906000526020600020905b8154815290600101906020018083116108bc57829003601f168201915b50505050506040518060400160405280600181526020017f61000000000000000000000000000000000000000000000000000000000000008152506040518060400160405280600181526020017f62000000000000000000000000000000000000000000000000000000000000008152508d61191f565b90508015610a5157610a478a8a6040878154811061097157610970614419565b5b9060005260206000209060040201600301805461098d906140b9565b80601f01602080910402602001604051908101604052809291908181526020018280546109b9906140b9565b8015610a065780601f106109db57610100808354040283529160200191610a06565b820191906000526020600020905b8154815290600101906020018083116109e957829003601f168201915b50505050506040518060400160405280600f81526020017f416e6e75616c205472616e7366657200000000000000000000000000000000008152508b6130dd565b6001955050611459565b50610cbb565b600386148015610a8c5750600060408481548110610a7857610a77614419565b5b906000526020600020906004020160020154115b15610cba576000610bb78a60408681548110610aab57610aaa614419565b5b90600052602060002090600402016003018054610ac7906140b9565b80601f0160208091040260200160405190810160405280929190818152602001828054610af3906140b9565b8015610b405780601f10610b1557610100808354040283529160200191610b40565b820191906000526020600020905b815481529060010190602001808311610b2357829003601f168201915b50505050506040518060400160405280600181526020017f61000000000000000000000000000000000000000000000000000000000000008152506040518060400160405280600181526020017f62000000000000000000000000000000000000000000000000000000000000008152508d61191f565b90508015610cb857610cae8a8a60408781548110610bd857610bd7614419565b5b90600052602060002090600402016003018054610bf4906140b9565b80601f0160208091040260200160405190810160405280929190818152602001828054610c20906140b9565b8015610c6d5780601f10610c4257610100808354040283529160200191610c6d565b820191906000526020600020905b815481529060010190602001808311610c5057829003601f168201915b50505050506040518060400160405280600f81526020017f416e6e75616c205472616e7366657200000000000000000000000000000000008152508b6130dd565b6001955050611459565b505b5b5b5b600186148015610cf25750600060408381548110610cde57610cdd614419565b5b906000526020600020906004020160000154115b15610f24576000610e1d8a60408581548110610d1157610d10614419565b5b90600052602060002090600402016003018054610d2d906140b9565b80601f0160208091040260200160405190810160405280929190818152602001828054610d59906140b9565b8015610da65780601f10610d7b57610100808354040283529160200191610da6565b820191906000526020600020905b815481529060010190602001808311610d8957829003601f168201915b50505050506040518060400160405280600181526020017f61000000000000000000000000000000000000000000000000000000000000008152506040518060400160405280600181526020017f62000000000000000000000000000000000000000000000000000000000000008152508d61191f565b90508015610f1e57610f148a8a60408681548110610e3e57610e3d614419565b5b90600052602060002090600402016003018054610e5a906140b9565b80601f0160208091040260200160405190810160405280929190818152602001828054610e86906140b9565b8015610ed35780601f10610ea857610100808354040283529160200191610ed3565b820191906000526020600020905b815481529060010190602001808311610eb657829003601f168201915b50505050506040518060400160405280600f81526020017f416e6e75616c205472616e7366657200000000000000000000000000000000008152508b6130dd565b6001955050611459565b506113f0565b600286148015610f595750600060408381548110610f4557610f44614419565b5b906000526020600020906004020160010154115b1561118b5760006110848a60408581548110610f7857610f77614419565b5b90600052602060002090600402016003018054610f94906140b9565b80601f0160208091040260200160405190810160405280929190818152602001828054610fc0906140b9565b801561100d5780601f10610fe25761010080835404028352916020019161100d565b820191906000526020600020905b815481529060010190602001808311610ff057829003601f168201915b50505050506040518060400160405280600181526020017f61000000000000000000000000000000000000000000000000000000000000008152506040518060400160405280600181526020017f62000000000000000000000000000000000000000000000000000000000000008152508d61191f565b905080156111855761117b8a8a604086815481106110a5576110a4614419565b5b906000526020600020906004020160030180546110c1906140b9565b80601f01602080910402602001604051908101604052809291908181526020018280546110ed906140b9565b801561113a5780601f1061110f5761010080835404028352916020019161113a565b820191906000526020600020905b81548152906001019060200180831161111d57829003601f168201915b50505050506040518060400160405280600f81526020017f416e6e75616c205472616e7366657200000000000000000000000000000000008152508b6130dd565b6001955050611459565b506113ef565b6003861480156111c057506000604083815481106111ac576111ab614419565b5b906000526020600020906004020160020154115b156113ee5760006112eb8a604085815481106111df576111de614419565b5b906000526020600020906004020160030180546111fb906140b9565b80601f0160208091040260200160405190810160405280929190818152602001828054611227906140b9565b80156112745780601f1061124957610100808354040283529160200191611274565b820191906000526020600020905b81548152906001019060200180831161125757829003601f168201915b50505050506040518060400160405280600181526020017f61000000000000000000000000000000000000000000000000000000000000008152506040518060400160405280600181526020017f62000000000000000000000000000000000000000000000000000000000000008152508d61191f565b905080156113ec576113e28a8a6040868154811061130c5761130b614419565b5b90600052602060002090600402016003018054611328906140b9565b80601f0160208091040260200160405190810160405280929190818152602001828054611354906140b9565b80156113a15780601f10611376576101008083540402835291602001916113a1565b820191906000526020600020905b81548152906001019060200180831161138457829003601f168201915b50505050506040518060400160405280600f81526020017f416e6e75616c205472616e7366657200000000000000000000000000000000008152508b6130dd565b6001955050611459565b505b5b5b60016040805490506114029190614511565b83036114115760009250611420565b828061141c90614579565b9350505b6000820361144157600160408054905061143a9190614511565b9150611450565b818061144c906145c1565b9250505b60009050610572565b505050611475565b5b808061146d90614579565b91505061040b565b5060005b6040805490508110156116f3576001831480156114bb57506000604082815481106114a7576114a6614419565b5b906000526020600020906004020160000154115b156116e05760006115e687604084815481106114da576114d9614419565b5b906000526020600020906004020160030180546114f6906140b9565b80601f0160208091040260200160405190810160405280929190818152602001828054611522906140b9565b801561156f5780601f106115445761010080835404028352916020019161156f565b820191906000526020600020905b81548152906001019060200180831161155257829003601f168201915b50505050506040518060400160405280600181526020017f61000000000000000000000000000000000000000000000000000000000000008152506040518060400160405280600181526020017f62000000000000000000000000000000000000000000000000000000000000008152508a61191f565b905080156116de576116dd87876040858154811061160757611606614419565b5b90600052602060002090600402016003018054611623906140b9565b80601f016020809104026020016040519081016040528092919081815260200182805461164f906140b9565b801561169c5780601f106116715761010080835404028352916020019161169c565b820191906000526020600020905b81548152906001019060200180831161167f57829003601f168201915b50505050506040518060400160405280600f81526020017f416e6e75616c205472616e736665720000000000000000000000000000000000815250886130dd565b5b505b80806116eb90614579565b915050611479565b5080611734576040517f08c379a000000000000000000000000000000000000000000000000000000000815260040161172b90614636565b60405180910390fd5b5050505050565b6002818154811061174b57600080fd5b9060005260206000209060060201600091509050806000015490806001018054611774906140b9565b80601f01602080910402602001604051908101604052809291908181526020018280546117a0906140b9565b80156117ed5780601f106117c2576101008083540402835291602001916117ed565b820191906000526020600020905b8154815290600101906020018083116117d057829003601f168201915b505050505090806002018054611802906140b9565b80601f016020809104026020016040519081016040528092919081815260200182805461182e906140b9565b801561187b5780601f106118505761010080835404028352916020019161187b565b820191906000526020600020905b81548152906001019060200180831161185e57829003601f168201915b50505050509080600301549080600401549080600501805461189c906140b9565b80601f01602080910402602001604051908101604052809291908181526020018280546118c8906140b9565b80156119155780601f106118ea57610100808354040283529160200191611915565b820191906000526020600020905b8154815290600101906020018083116118f857829003601f168201915b5050505050905086565b600080856040516020016119339190614402565b604051602081830303815290604052805190602001208360405160200161195a9190614402565b6040516020818303038152906040528051906020012003611982576000905080915050611eb0565b846040516020016119939190614402565b60405160208183030381529060405280519060200120836040516020016119ba9190614402565b60405160208183030381529060405280519060200120036119e2576000905080915050611eb0565b836040516020016119f39190614402565b6040516020818303038152906040528051906020012083604051602001611a1a9190614402565b6040516020818303038152906040528051906020012003611a42576000905080915050611eb0565b60005b600280549050811015611ea9578760028281548110611a6757611a66614419565b5b906000526020600020906006020160000154148015611af5575086604051602001611a929190614402565b6040516020818303038152906040528051906020012060028281548110611abc57611abb614419565b5b9060005260206000209060060201600201604051602001611add91906144cb565b60405160208183030381529060405280519060200120145b15611b0857600091508192505050611eb0565b8760028281548110611b1d57611b1c614419565b5b906000526020600020906006020160000154148015611bab575085604051602001611b489190614402565b6040516020818303038152906040528051906020012060028281548110611b7257611b71614419565b5b9060005260206000209060060201600201604051602001611b9391906144cb565b60405160208183030381529060405280519060200120145b15611bbe57600091508192505050611eb0565b8760028281548110611bd357611bd2614419565b5b906000526020600020906006020160000154148015611c61575084604051602001611bfe9190614402565b6040516020818303038152906040528051906020012060028281548110611c2857611c27614419565b5b9060005260206000209060060201600201604051602001611c4991906144cb565b60405160208183030381529060405280519060200120145b15611c7457600091508192505050611eb0565b8760028281548110611c8957611c88614419565b5b906000526020600020906006020160000154148015611d17575086604051602001611cb49190614402565b6040516020818303038152906040528051906020012060028281548110611cde57611cdd614419565b5b9060005260206000209060060201600101604051602001611cff91906144cb565b60405160208183030381529060405280519060200120145b15611d2a57600091508192505050611eb0565b8760028281548110611d3f57611d3e614419565b5b906000526020600020906006020160000154148015611dcd575085604051602001611d6a9190614402565b6040516020818303038152906040528051906020012060028281548110611d9457611d93614419565b5b9060005260206000209060060201600101604051602001611db591906144cb565b60405160208183030381529060405280519060200120145b15611de057600091508192505050611eb0565b8760028281548110611df557611df4614419565b5b906000526020600020906006020160000154148015611e83575084604051602001611e209190614402565b6040516020818303038152906040528051906020012060028281548110611e4a57611e49614419565b5b9060005260206000209060060201600101604051602001611e6b91906144cb565b60405160208183030381529060405280519060200120145b15611e9657600091508192505050611eb0565b8080611ea190614579565b915050611a45565b5060019150505b95945050505050565b60008054906101000a900473ffffffffffffffffffffffffffffffffffffffff1673ffffffffffffffffffffffffffffffffffffffff163373ffffffffffffffffffffffffffffffffffffffff1614611f47576040517f08c379a0000000000000000000000000000000000000000000000000000000008152600401611f3e906146a2565b60405180910390fd5b6000611f56888787878b61191f565b905080611f98576040517f08c379a0000000000000000000000000000000000000000000000000000000008152600401611f8f9061470e565b60405180910390fd5b60005b6040805490508110156123515786604051602001611fb99190614402565b6040516020818303038152906040528051906020012060408281548110611fe357611fe2614419565b5b906000526020600020906004020160030160405160200161200491906144cb565b604051602081830303815290604052805190602001200361233e5760006040828154811061203557612034614419565b5b9060005260206000209060040201600001541180156120545750600183145b156121295760026040518060c001604052808b81526020018a81526020018981526020014281526020018581526020018681525090806001815401808255809150506001900390600052602060002090600602016000909190919091506000820151816000015560208201518160010190816120d09190614296565b5060408201518160020190816120e69190614296565b50606082015181600301556080820151816004015560a08201518160050190816121109190614296565b50505061211e888885612add565b600191505050612ad4565b60006040828154811061213f5761213e614419565b5b90600052602060002090600402016001015411801561215e5750600283145b156122335760026040518060c001604052808b81526020018a81526020018981526020014281526020018581526020018681525090806001815401808255809150506001900390600052602060002090600602016000909190919091506000820151816000015560208201518160010190816121da9190614296565b5060408201518160020190816121f09190614296565b50606082015181600301556080820151816004015560a082015181600501908161221a9190614296565b505050612228888885612add565b600191505050612ad4565b60006040828154811061224957612248614419565b5b9060005260206000209060040201600201541180156122685750600383145b1561233d5760026040518060c001604052808b81526020018a81526020018981526020014281526020018581526020018681525090806001815401808255809150506001900390600052602060002090600602016000909190919091506000820151816000015560208201518160010190816122e49190614296565b5060408201518160020190816122fa9190614296565b50606082015181600301556080820151816004015560a08201518160050190816123249190614296565b505050612332888885612add565b600191505050612ad4565b5b808061234990614579565b915050611f9b565b5060005b60408054905081101561270b57856040516020016123739190614402565b604051602081830303815290604052805190602001206040828154811061239d5761239c614419565b5b90600052602060002090600402016003016040516020016123be91906144cb565b60405160208183030381529060405280519060200120036126f8576000604082815481106123ef576123ee614419565b5b90600052602060002090600402016000015411801561240e5750600183145b156124e35760026040518060c001604052808b81526020018a815260200188815260200142815260200185815260200186815250908060018154018082558091505060019003906000526020600020906006020160009091909190915060008201518160000155602082015181600101908161248a9190614296565b5060408201518160020190816124a09190614296565b50606082015181600301556080820151816004015560a08201518160050190816124ca9190614296565b5050506124d8888785612add565b600191505050612ad4565b6000604082815481106124f9576124f8614419565b5b9060005260206000209060040201600101541180156125185750600283145b156125ed5760026040518060c001604052808b81526020018a81526020018881526020014281526020018581526020018681525090806001815401808255809150506001900390600052602060002090600602016000909190919091506000820151816000015560208201518160010190816125949190614296565b5060408201518160020190816125aa9190614296565b50606082015181600301556080820151816004015560a08201518160050190816125d49190614296565b5050506125e2888785612add565b600191505050612ad4565b60006040828154811061260357612602614419565b5b9060005260206000209060040201600201541180156126225750600383145b156126f75760026040518060c001604052808b81526020018a815260200188815260200142815260200185815260200186815250908060018154018082558091505060019003906000526020600020906006020160009091909190915060008201518160000155602082015181600101908161269e9190614296565b5060408201518160020190816126b49190614296565b50606082015181600301556080820151816004015560a08201518160050190816126de9190614296565b5050506126ec888785612add565b600191505050612ad4565b5b808061270390614579565b915050612355565b5060005b604080549050811015612ac5578460405160200161272d9190614402565b604051602081830303815290604052805190602001206040828154811061275757612756614419565b5b906000526020600020906004020160030160405160200161277891906144cb565b6040516020818303038152906040528051906020012003612ab2576000604082815481106127a9576127a8614419565b5b9060005260206000209060040201600001541180156127c85750600183145b1561289d5760026040518060c001604052808b81526020018a81526020018781526020014281526020018581526020018681525090806001815401808255809150506001900390600052602060002090600602016000909190919091506000820151816000015560208201518160010190816128449190614296565b50604082015181600201908161285a9190614296565b50606082015181600301556080820151816004015560a08201518160050190816128849190614296565b505050612892888685612add565b600191505050612ad4565b6000604082815481106128b3576128b2614419565b5b9060005260206000209060040201600101541180156128d25750600283145b156129a75760026040518060c001604052808b81526020018a815260200187815260200142815260200185815260200186815250908060018154018082558091505060019003906000526020600020906006020160009091909190915060008201518160000155602082015181600101908161294e9190614296565b5060408201518160020190816129649190614296565b50606082015181600301556080820151816004015560a082015181600501908161298e9190614296565b50505061299c888685612add565b600191505050612ad4565b6000604082815481106129bd576129bc614419565b5b9060005260206000209060040201600201541180156129dc5750600383145b15612ab15760026040518060c001604052808b81526020018a8152602001878152602001428152602001858152602001868152509080600181540180825580915050600190039060005260206000209060060201600090919091909150600082015181600001556020820151816001019081612a589190614296565b506040820151816002019081612a6e9190614296565b50606082015181600301556080820151816004015560a0820151816005019081612a989190614296565b505050612aa6888685612add565b600191505050612ad4565b5b8080612abd90614579565b91505061270f565b50612ad288888685610407565b505b50505050505050565b60005b6040805490508110156130545782604051602001612afe9190614402565b6040516020818303038152906040528051906020012060408281548110612b2857612b27614419565b5b9060005260206000209060040201600301604051602001612b4991906144cb565b60405160208183030381529060405280519060200120148015612b6c5750600182145b15612bd157600160408281548110612b8757612b86614419565b5b906000526020600020906004020160000154612ba39190614511565b60408281548110612bb757612bb6614419565b5b906000526020600020906004020160000181905550612d97565b82604051602001612be29190614402565b6040516020818303038152906040528051906020012060408281548110612c0c57612c0b614419565b5b9060005260206000209060040201600301604051602001612c2d91906144cb565b60405160208183030381529060405280519060200120148015612c505750600282145b15612cb557600160408281548110612c6b57612c6a614419565b5b906000526020600020906004020160010154612c879190614511565b60408281548110612c9b57612c9a614419565b5b906000526020600020906004020160010181905550612d96565b82604051602001612cc69190614402565b6040516020818303038152906040528051906020012060408281548110612cf057612cef614419565b5b9060005260206000209060040201600301604051602001612d1191906144cb565b60405160208183030381529060405280519060200120148015612d345750600382145b15612d9557600160408281548110612d4f57612d4e614419565b5b906000526020600020906004020160020154612d6b9190614511565b60408281548110612d7f57612d7e614419565b5b9060005260206000209060040201600201819055505b5b5b83604051602001612da89190614402565b6040516020818303038152906040528051906020012060408281548110612dd257612dd1614419565b5b9060005260206000209060040201600301604051602001612df391906144cb565b60405160208183030381529060405280519060200120148015612e165750600182145b15612e7b57600160408281548110612e3157612e30614419565b5b906000526020600020906004020160000154612e4d9190614545565b60408281548110612e6157612e60614419565b5b906000526020600020906004020160000181905550613041565b83604051602001612e8c9190614402565b6040516020818303038152906040528051906020012060408281548110612eb657612eb5614419565b5b9060005260206000209060040201600301604051602001612ed791906144cb565b60405160208183030381529060405280519060200120148015612efa5750600282145b15612f5f57600160408281548110612f1557612f14614419565b5b906000526020600020906004020160010154612f319190614545565b60408281548110612f4557612f44614419565b5b906000526020600020906004020160010181905550613040565b83604051602001612f709190614402565b6040516020818303038152906040528051906020012060408281548110612f9a57612f99614419565b5b9060005260206000209060040201600301604051602001612fbb91906144cb565b60405160208183030381529060405280519060200120148015612fde5750600382145b1561303f57600160408281548110612ff957612ff8614419565b5b9060005260206000209060040201600201546130159190614545565b6040828154811061302957613028614419565b5b9060005260206000209060040201600201819055505b5b5b808061304c90614579565b915050612ae0565b50505050565b33600360003373ffffffffffffffffffffffffffffffffffffffff1673ffffffffffffffffffffffffffffffffffffffff16815260200190815260200160002060000160006101000a81548173ffffffffffffffffffffffffffffffffffffffff021916908373ffffffffffffffffffffffffffffffffffffffff160217905550565b60008054906101000a900473ffffffffffffffffffffffffffffffffffffffff1673ffffffffffffffffffffffffffffffffffffffff163373ffffffffffffffffffffffffffffffffffffffff161461316b576040517f08c379a0000000000000000000000000000000000000000000000000000000008152600401613162906146a2565b60405180910390fd5b6000805b60408054905081101561351f578460405160200161318d9190614402565b60405160208183030381529060405280519060200120604082815481106131b7576131b6614419565b5b90600052602060002090600402016003016040516020016131d891906144cb565b604051602081830303815290604052805190602001200361350c5760006040828154811061320957613208614419565b5b9060005260206000209060040201600001541180156132285750600183145b156132fb5760026040518060c001604052808981526020018881526020018781526020014281526020018581526020018681525090806001815401808255809150506001900390600052602060002090600602016000909190919091506000820151816000015560208201518160010190816132a49190614296565b5060408201518160020190816132ba9190614296565b50606082015181600301556080820151816004015560a08201518160050190816132e49190614296565b505050600191506132f6868685612add565b61351f565b60006040828154811061331157613310614419565b5b9060005260206000209060040201600101541180156133305750600283145b156134035760026040518060c001604052808981526020018881526020018781526020014281526020018581526020018681525090806001815401808255809150506001900390600052602060002090600602016000909190919091506000820151816000015560208201518160010190816133ac9190614296565b5060408201518160020190816133c29190614296565b50606082015181600301556080820151816004015560a08201518160050190816133ec9190614296565b505050600191506133fe868685612add565b61351f565b60006040828154811061341957613418614419565b5b9060005260206000209060040201600201541180156134385750600383145b1561350b5760026040518060c001604052808981526020018881526020018781526020014281526020018581526020018681525090806001815401808255809150506001900390600052602060002090600602016000909190919091506000820151816000015560208201518160010190816134b49190614296565b5060408201518160020190816134ca9190614296565b50606082015181600301556080820151816004015560a08201518160050190816134f49190614296565b50505060019150613506868685612add565b61351f565b5b808061351790614579565b91505061316f565b5080613560576040517f08c379a0000000000000000000000000000000000000000000000000000000008152600401613557906147a0565b60405180910390fd5b505050505050565b60005b6040805490508110156137a257836040516020016135899190614402565b60405160208183030381529060405280519060200120604082815481106135b3576135b2614419565b5b90600052602060002090600402016003016040516020016135d491906144cb565b604051602081830303815290604052805190602001201480156135f75750600183145b1561362b57816040828154811061361157613610614419565b5b90600052602060002090600402016000018190555061378f565b8360405160200161363c9190614402565b604051602081830303815290604052805190602001206040828154811061366657613665614419565b5b906000526020600020906004020160030160405160200161368791906144cb565b604051602081830303815290604052805190602001201480156136aa5750600283145b156136de5781604082815481106136c4576136c3614419565b5b90600052602060002090600402016001018190555061378e565b836040516020016136ef9190614402565b604051602081830303815290604052805190602001206040828154811061371957613718614419565b5b906000526020600020906004020160030160405160200161373a91906144cb565b6040516020818303038152906040528051906020012014801561375d5750600383145b1561378d57816040828154811061377757613776614419565b5b9060005260206000209060040201600201819055505b5b5b808061379a90614579565b91505061356b565b50505050565b60008054906101000a900473ffffffffffffffffffffffffffffffffffffffff1681565b6000604051905090565b600080fd5b600080fd5b6000819050919050565b6137f3816137e0565b81146137fe57600080fd5b50565b600081359050613810816137ea565b92915050565b600080fd5b600080fd5b6000601f19601f8301169050919050565b7f4e487b7100000000000000000000000000000000000000000000000000000000600052604160045260246000fd5b61386982613820565b810181811067ffffffffffffffff8211171561388857613887613831565b5b80604052505050565b600061389b6137cc565b90506138a78282613860565b919050565b600067ffffffffffffffff8211156138c7576138c6613831565b5b6138d082613820565b9050602081019050919050565b82818337600083830152505050565b60006138ff6138fa846138ac565b613891565b90508281526020810184848401111561391b5761391a61381b565b5b6139268482856138dd565b509392505050565b600082601f83011261394357613942613816565b5b81356139538482602086016138ec565b91505092915050565b60008060008060808587031215613976576139756137d6565b5b600061398487828801613801565b945050602061399587828801613801565b93505060406139a687828801613801565b925050606085013567ffffffffffffffff8111156139c7576139c66137db565b5b6139d38782880161392e565b91505092959194509250565b6139e8816137e0565b82525050565b6000602082019050613a0360008301846139df565b92915050565b600060208284031215613a1f57613a1e6137d6565b5b6000613a2d84828501613801565b91505092915050565b600081519050919050565b600082825260208201905092915050565b60005b83811015613a70578082015181840152602081019050613a55565b60008484015250505050565b6000613a8782613a36565b613a918185613a41565b9350613aa1818560208601613a52565b613aaa81613820565b840191505092915050565b6000608082019050613aca60008301876139df565b613ad760208301866139df565b613ae460408301856139df565b8181036060830152613af68184613a7c565b905095945050505050565b60008060008060808587031215613b1b57613b1a6137d6565b5b6000613b2987828801613801565b945050602085013567ffffffffffffffff811115613b4a57613b496137db565b5b613b568782880161392e565b935050604085013567ffffffffffffffff811115613b7757613b766137db565b5b613b838782880161392e565b9250506060613b9487828801613801565b91505092959194509250565b600060c082019050613bb560008301896139df565b8181036020830152613bc78188613a7c565b90508181036040830152613bdb8187613a7c565b9050613bea60608301866139df565b613bf760808301856139df565b81810360a0830152613c098184613a7c565b9050979650505050505050565b600080600080600060a08688031215613c3257613c316137d6565b5b6000613c4088828901613801565b955050602086013567ffffffffffffffff811115613c6157613c606137db565b5b613c6d8882890161392e565b945050604086013567ffffffffffffffff811115613c8e57613c8d6137db565b5b613c9a8882890161392e565b935050606086013567ffffffffffffffff811115613cbb57613cba6137db565b5b613cc78882890161392e565b925050608086013567ffffffffffffffff811115613ce857613ce76137db565b5b613cf48882890161392e565b9150509295509295909350565b60008115159050919050565b613d1681613d01565b82525050565b6000602082019050613d316000830184613d0d565b92915050565b600080600080600080600060e0888a031215613d5657613d556137d6565b5b6000613d648a828b01613801565b975050602088013567ffffffffffffffff811115613d8557613d846137db565b5b613d918a828b0161392e565b965050604088013567ffffffffffffffff811115613db257613db16137db565b5b613dbe8a828b0161392e565b955050606088013567ffffffffffffffff811115613ddf57613dde6137db565b5b613deb8a828b0161392e565b945050608088013567ffffffffffffffff811115613e0c57613e0b6137db565b5b613e188a828b0161392e565b93505060a088013567ffffffffffffffff811115613e3957613e386137db565b5b613e458a828b0161392e565b92505060c0613e568a828b01613801565b91505092959891949750929550565b600080600060608486031215613e7e57613e7d6137d6565b5b600084013567ffffffffffffffff811115613e9c57613e9b6137db565b5b613ea88682870161392e565b935050602084013567ffffffffffffffff811115613ec957613ec86137db565b5b613ed58682870161392e565b9250506040613ee686828701613801565b9150509250925092565b600080600080600060a08688031215613f0c57613f0b6137d6565b5b6000613f1a88828901613801565b955050602086013567ffffffffffffffff811115613f3b57613f3a6137db565b5b613f478882890161392e565b945050604086013567ffffffffffffffff811115613f6857613f676137db565b5b613f748882890161392e565b935050606086013567ffffffffffffffff811115613f9557613f946137db565b5b613fa18882890161392e565b9250506080613fb288828901613801565b9150509295509295909350565b600080600060608486031215613fd857613fd76137d6565b5b600084013567ffffffffffffffff811115613ff657613ff56137db565b5b6140028682870161392e565b935050602061401386828701613801565b925050604061402486828701613801565b9150509250925092565b600073ffffffffffffffffffffffffffffffffffffffff82169050919050565b60006140598261402e565b9050919050565b6140698161404e565b82525050565b60006020820190506140846000830184614060565b92915050565b7f4e487b7100000000000000000000000000000000000000000000000000000000600052602260045260246000fd5b600060028204905060018216806140d157607f821691505b6020821081036140e4576140e361408a565b5b50919050565b60008190508160005260206000209050919050565b60006020601f8301049050919050565b600082821b905092915050565b60006008830261414c7fffffffffffffffffffffffffffffffffffffffffffffffffffffffffffffffff8261410f565b614156868361410f565b95508019841693508086168417925050509392505050565b6000819050919050565b600061419361418e614189846137e0565b61416e565b6137e0565b9050919050565b6000819050919050565b6141ad83614178565b6141c16141b98261419a565b84845461411c565b825550505050565b600090565b6141d66141c9565b6141e18184846141a4565b505050565b5b81811015614205576141fa6000826141ce565b6001810190506141e7565b5050565b601f82111561424a5761421b816140ea565b614224846140ff565b81016020851015614233578190505b61424761423f856140ff565b8301826141e6565b50505b505050565b600082821c905092915050565b600061426d6000198460080261424f565b1980831691505092915050565b6000614286838361425c565b9150826002028217905092915050565b61429f82613a36565b67ffffffffffffffff8111156142b8576142b7613831565b5b6142c282546140b9565b6142cd828285614209565b600060209050601f83116001811461430057600084156142ee578287015190505b6142f8858261427a565b865550614360565b601f19841661430e866140ea565b60005b8281101561433657848901518255600182019150602085019450602081019050614311565b86831015614353578489015161434f601f89168261425c565b8355505b6001600288020188555050505b505050505050565b6000819050919050565b61438361437e826137e0565b614368565b82525050565b60006143958286614372565b6020820191506143a58285614372565b6020820191506143b58284614372565b602082019150819050949350505050565b600081905092915050565b60006143dc82613a36565b6143e681856143c6565b93506143f6818560208601613a52565b80840191505092915050565b600061440e82846143d1565b915081905092915050565b7f4e487b7100000000000000000000000000000000000000000000000000000000600052603260045260246000fd5b60008154614455816140b9565b61445f81866143c6565b9450600182166000811461447a576001811461448f576144c2565b60ff19831686528115158202860193506144c2565b614498856140ea565b60005b838110156144ba5781548189015260018201915060208101905061449b565b838801955050505b50505092915050565b60006144d78284614448565b915081905092915050565b7f4e487b7100000000000000000000000000000000000000000000000000000000600052601160045260246000fd5b600061451c826137e0565b9150614527836137e0565b925082820390508181111561453f5761453e6144e2565b5b92915050565b6000614550826137e0565b915061455b836137e0565b9250828201905080821115614573576145726144e2565b5b92915050565b6000614584826137e0565b91507fffffffffffffffffffffffffffffffffffffffffffffffffffffffffffffffff82036145b6576145b56144e2565b5b600182019050919050565b60006145cc826137e0565b9150600082036145df576145de6144e2565b5b600182039050919050565b7f4e6f7420506f737369626c650000000000000000000000000000000000000000600082015250565b6000614620600c83613a41565b915061462b826145ea565b602082019050919050565b6000602082019050818103600083015261464f81614613565b9050919050565b7f416363657373207265737472696374656420746f2061646d696e000000000000600082015250565b600061468c601a83613a41565b915061469782614656565b602082019050919050565b600060208201905081810360008301526146bb8161467f565b9050919050565b7f496e76616c6964204f7074696f6e7320476976656e0000000000000000000000600082015250565b60006146f8601583613a41565b9150614703826146c2565b602082019050919050565b60006020820190508181036000830152614727816146eb565b9050919050565b7f44657374696e6174696f6e206f6666696365206e6f7420666f756e642077697460008201527f68207468652073706563696669656420706f73742e0000000000000000000000602082015250565b600061478a603583613a41565b91506147958261472e565b604082019050919050565b600060208201905081810360008301526147b98161477d565b905091905056fea26469706673582212209098220ed17f727cb05a9f29b6b4ef959c0e323acbba39a077a235e521b986bf64736f6c63430008120033",
  "linkReferences": {},
  "deployedLinkReferences": {}
}